{
  "contractName": "AURAWrapped",
  "abi": [
    {
      "inputs": [],
      "stateMutability": "nonpayable",
      "type": "constructor"
    },
    {
      "anonymous": false,
      "inputs": [
        {
          "indexed": false,
          "internalType": "uint256",
          "name": "amount",
          "type": "uint256"
        },
        {
          "indexed": true,
          "internalType": "uint256",
          "name": "to_KOI_ID",
          "type": "uint256"
        }
      ],
      "name": "AURAGotUnwrapped",
      "type": "event"
    },
    {
      "anonymous": false,
      "inputs": [
        {
          "indexed": true,
          "internalType": "uint256",
          "name": "_KOI_ID",
          "type": "uint256"
        },
        {
          "indexed": false,
          "internalType": "uint256",
          "name": "amount",
          "type": "uint256"
        }
      ],
      "name": "AURAGotWrapped",
      "type": "event"
    },
    {
      "anonymous": false,
      "inputs": [
        {
          "indexed": true,
          "internalType": "address",
          "name": "owner",
          "type": "address"
        },
        {
          "indexed": true,
          "internalType": "address",
          "name": "spender",
          "type": "address"
        },
        {
          "indexed": false,
          "internalType": "uint256",
          "name": "value",
          "type": "uint256"
        }
      ],
      "name": "Approval",
      "type": "event"
    },
    {
      "anonymous": false,
      "inputs": [
        {
          "indexed": true,
          "internalType": "address",
          "name": "from",
          "type": "address"
        },
        {
          "indexed": true,
          "internalType": "address",
          "name": "to",
          "type": "address"
        },
        {
          "indexed": false,
          "internalType": "uint256",
          "name": "value",
          "type": "uint256"
        }
      ],
      "name": "Transfer",
      "type": "event"
    },
    {
      "inputs": [],
      "name": "_Treasurer",
      "outputs": [
        {
          "internalType": "uint256",
          "name": "",
          "type": "uint256"
        }
      ],
      "stateMutability": "view",
      "type": "function",
      "constant": true
    },
    {
      "inputs": [
        {
          "internalType": "address",
          "name": "owner",
          "type": "address"
        },
        {
          "internalType": "address",
          "name": "spender",
          "type": "address"
        }
      ],
      "name": "allowance",
      "outputs": [
        {
          "internalType": "uint256",
          "name": "",
          "type": "uint256"
        }
      ],
      "stateMutability": "view",
      "type": "function",
      "constant": true
    },
    {
      "inputs": [
        {
          "internalType": "address",
          "name": "spender",
          "type": "address"
        },
        {
          "internalType": "uint256",
          "name": "amount",
          "type": "uint256"
        }
      ],
      "name": "approve",
      "outputs": [
        {
          "internalType": "bool",
          "name": "",
          "type": "bool"
        }
      ],
      "stateMutability": "nonpayable",
      "type": "function"
    },
    {
      "inputs": [
        {
          "internalType": "address",
          "name": "account",
          "type": "address"
        }
      ],
      "name": "balanceOf",
      "outputs": [
        {
          "internalType": "uint256",
          "name": "",
          "type": "uint256"
        }
      ],
      "stateMutability": "view",
      "type": "function",
      "constant": true
    },
    {
      "inputs": [],
      "name": "decimals",
      "outputs": [
        {
          "internalType": "uint8",
          "name": "",
          "type": "uint8"
        }
      ],
      "stateMutability": "view",
      "type": "function",
      "constant": true
    },
    {
      "inputs": [
        {
          "internalType": "address",
          "name": "spender",
          "type": "address"
        },
        {
          "internalType": "uint256",
          "name": "subtractedValue",
          "type": "uint256"
        }
      ],
      "name": "decreaseAllowance",
      "outputs": [
        {
          "internalType": "bool",
          "name": "",
          "type": "bool"
        }
      ],
      "stateMutability": "nonpayable",
      "type": "function"
    },
    {
      "inputs": [
        {
          "internalType": "address",
          "name": "spender",
          "type": "address"
        },
        {
          "internalType": "uint256",
          "name": "addedValue",
          "type": "uint256"
        }
      ],
      "name": "increaseAllowance",
      "outputs": [
        {
          "internalType": "bool",
          "name": "",
          "type": "bool"
        }
      ],
      "stateMutability": "nonpayable",
      "type": "function"
    },
    {
      "inputs": [],
      "name": "name",
      "outputs": [
        {
          "internalType": "string",
          "name": "",
          "type": "string"
        }
      ],
      "stateMutability": "view",
      "type": "function",
      "constant": true
    },
    {
      "inputs": [],
      "name": "symbol",
      "outputs": [
        {
          "internalType": "string",
          "name": "",
          "type": "string"
        }
      ],
      "stateMutability": "view",
      "type": "function",
      "constant": true
    },
    {
      "inputs": [],
      "name": "totalSupply",
      "outputs": [
        {
          "internalType": "uint256",
          "name": "",
          "type": "uint256"
        }
      ],
      "stateMutability": "view",
      "type": "function",
      "constant": true
    },
    {
      "inputs": [
        {
          "internalType": "address",
          "name": "recipient",
          "type": "address"
        },
        {
          "internalType": "uint256",
          "name": "amount",
          "type": "uint256"
        }
      ],
      "name": "transfer",
      "outputs": [
        {
          "internalType": "bool",
          "name": "",
          "type": "bool"
        }
      ],
      "stateMutability": "nonpayable",
      "type": "function"
    },
    {
      "inputs": [
        {
          "internalType": "address",
          "name": "sender",
          "type": "address"
        },
        {
          "internalType": "address",
          "name": "recipient",
          "type": "address"
        },
        {
          "internalType": "uint256",
          "name": "amount",
          "type": "uint256"
        }
      ],
      "name": "transferFrom",
      "outputs": [
        {
          "internalType": "bool",
          "name": "",
          "type": "bool"
        }
      ],
      "stateMutability": "nonpayable",
      "type": "function"
    },
    {
      "inputs": [
        {
          "internalType": "uint256",
          "name": "_KOI_ID",
          "type": "uint256"
        },
        {
          "internalType": "uint256",
          "name": "amountToWrap",
          "type": "uint256"
        }
      ],
      "name": "wrap",
      "outputs": [],
      "stateMutability": "nonpayable",
      "type": "function"
    },
    {
      "inputs": [
        {
          "internalType": "uint256",
          "name": "amountToUnwrap",
          "type": "uint256"
        },
        {
          "internalType": "uint256",
          "name": "to_KOI_ID",
          "type": "uint256"
        }
      ],
      "name": "unwrap",
      "outputs": [],
      "stateMutability": "nonpayable",
      "type": "function"
    }
  ],
  "bytecode": "0x6080604052600580546001600160a01b0319167367bba38865a7c7ada68d51082da7fa33c3959d851790553480156200003757600080fd5b5060408051808201825260088152674b4f49204175726160c01b6020808301918252835180850190945260048452634155524160e01b9084015281519192916200008491600391620000a8565b5080516200009a906004906020840190620000a8565b50506011600655506200018b565b828054620000b6906200014e565b90600052602060002090601f016020900481019282620000da576000855562000125565b82601f10620000f557805160ff191683800117855562000125565b8280016001018555821562000125579182015b828111156200012557825182559160200191906001019062000108565b506200013392915062000137565b5090565b5b8082111562000133576000815560010162000138565b6002810460018216806200016357607f821691505b602082108114156200018557634e487b7160e01b600052602260045260246000fd5b50919050565b61111b806200019b6000396000f3fe608060405234801561001057600080fd5b50600436106100ea5760003560e01c80635b14b92b1161008c57806395d89b411161006657806395d89b41146101d1578063a457c2d7146101d9578063a9059cbb146101ec578063dd62ed3e146101ff576100ea565b80635b14b92b1461018c5780636e2866711461019557806370a08231146101a8576100ea565b806323b872dd116100c857806323b872dd1461014257806325ded58614610155578063313ce5671461016a5780633950935114610179576100ea565b806306fdde03146100ef578063095ea7b31461010d57806318160ddd14610130575b600080fd5b6100f7610238565b6040516101049190610ffa565b60405180910390f35b61012061011b366004610f76565b6102ca565b6040519015158152602001610104565b6002545b604051908152602001610104565b610120610150366004610f36565b6102e0565b610168610163366004610fd9565b61038f565b005b60405160128152602001610104565b610120610187366004610f76565b610791565b61013460065481565b6101686101a3366004610fd9565b6107cd565b6101346101b6366004610ebf565b6001600160a01b031660009081526020819052604090205490565b6100f76108f1565b6101206101e7366004610f76565b610900565b6101206101fa366004610f76565b610999565b61013461020d366004610efe565b6001600160a01b03918216600090815260016020908152604080832093909416825291909152205490565b6060600380546102479061107c565b80601f01602080910402602001604051908101604052809291908181526020018280546102739061107c565b80156102c05780601f10610295576101008083540402835291602001916102c0565b820191906000526020600020905b8154815290600101906020018083116102a357829003601f168201915b5050505050905090565b60006102d73384846109a6565b50600192915050565b60006102ed848484610acb565b6001600160a01b0384166000908152600160209081526040808320338452909152902054828110156103775760405162461bcd60e51b815260206004820152602860248201527f45524332303a207472616e7366657220616d6f756e74206578636565647320616044820152676c6c6f77616e636560c01b60648201526084015b60405180910390fd5b61038485338584036109a6565b506001949350505050565b6005546040516331a9108f60e11b815260048101849052839133916001600160a01b0390911690636352211e9060240160206040518083038186803b1580156103d757600080fd5b505afa1580156103eb573d6000803e3d6000fd5b505050506040513d601f19601f8201168201806040525081019061040f9190610ee2565b6001600160a01b031614806104a6575060055460405163020604bf60e21b81526004810183905233916001600160a01b03169063081812fc9060240160206040518083038186803b15801561046357600080fd5b505afa158015610477573d6000803e3d6000fd5b505050506040513d601f19601f8201168201806040525081019061049b9190610ee2565b6001600160a01b0316145b6104f25760405162461bcd60e51b815260206004820152601a60248201527f4e656974686572206f776e6572206e6f7220617070726f766564000000000000604482015260640161036e565b6005546040516302d9bbd760e41b8152600481018590528491849182916001600160a01b031690632d9bbd709060240160206040518083038186803b15801561053a57600080fd5b505afa15801561054e573d6000803e3d6000fd5b505050506040513d601f19601f820116820180604052508101906105729190610fc1565b10156105ca5760405162461bcd60e51b815260206004820152602160248201527f53756d6d6f6e657220646f65736e74206861766520656e6f75676820244155526044820152604160f81b606482015260840161036e565b600554600654604051633765546760e11b815283926001600160a01b031691636ecaa8ce91610606918791600401918252602082015260400190565b60206040518083038186803b15801561061e57600080fd5b505afa158015610632573d6000803e3d6000fd5b505050506040513d601f19601f820116820180604052508101906106569190610fc1565b10156106ae5760405162461bcd60e51b815260206004820152602160248201527f4e6f7420656e6f75676820616c6c6f77616e636520746f2054726561737572656044820152603960f91b606482015260840161036e565b6005546006546040516305fca7bb60e31b815260048101829052602481018890526044810191909152606481018690526001600160a01b0390911690632fe53dd890608401602060405180830381600087803b15801561070d57600080fd5b505af1158015610721573d6000803e3d6000fd5b505050506040513d601f19601f820116820180604052508101906107459190610fa1565b506107503385610c9a565b847f3637a2c9b6112c74b409e3b855f2282e5ce5d86c6d349232279d0e2e09e4bdae8560405161078291815260200190565b60405180910390a25050505050565b3360008181526001602090815260408083206001600160a01b038716845290915281205490916102d79185906107c890869061104d565b6109a6565b6107d73383610d79565b600554600654604051636f2ebbd560e01b8152600481019190915260248101839052604481018490526001600160a01b0390911690636f2ebbd590606401602060405180830381600087803b15801561082f57600080fd5b505af1158015610843573d6000803e3d6000fd5b505050506040513d601f19601f820116820180604052508101906108679190610fa1565b6108b35760405162461bcd60e51b815260206004820152601860248201527f5472616e73666572206f66202441555241206661696c65640000000000000000604482015260640161036e565b807f1b7ef8e3dfae94e6fd8955460569ac08890d88977f014df50099bb47d3cec1b2836040516108e591815260200190565b60405180910390a25050565b6060600480546102479061107c565b3360009081526001602090815260408083206001600160a01b0386168452909152812054828110156109825760405162461bcd60e51b815260206004820152602560248201527f45524332303a2064656372656173656420616c6c6f77616e63652062656c6f77604482015264207a65726f60d81b606482015260840161036e565b61098f33858584036109a6565b5060019392505050565b60006102d7338484610acb565b6001600160a01b038316610a085760405162461bcd60e51b8152602060048201526024808201527f45524332303a20617070726f76652066726f6d20746865207a65726f206164646044820152637265737360e01b606482015260840161036e565b6001600160a01b038216610a695760405162461bcd60e51b815260206004820152602260248201527f45524332303a20617070726f766520746f20746865207a65726f206164647265604482015261737360f01b606482015260840161036e565b6001600160a01b0383811660008181526001602090815260408083209487168084529482529182902085905590518481527f8c5be1e5ebec7d5bd14f71427d1e84f3dd0314c0f7b2291e5b200ac8c7c3b92591015b60405180910390a3505050565b6001600160a01b038316610b2f5760405162461bcd60e51b815260206004820152602560248201527f45524332303a207472616e736665722066726f6d20746865207a65726f206164604482015264647265737360d81b606482015260840161036e565b6001600160a01b038216610b915760405162461bcd60e51b815260206004820152602360248201527f45524332303a207472616e7366657220746f20746865207a65726f206164647260448201526265737360e81b606482015260840161036e565b6001600160a01b03831660009081526020819052604090205481811015610c095760405162461bcd60e51b815260206004820152602660248201527f45524332303a207472616e7366657220616d6f756e7420657863656564732062604482015265616c616e636560d01b606482015260840161036e565b6001600160a01b03808516600090815260208190526040808220858503905591851681529081208054849290610c4090849061104d565b92505081905550826001600160a01b0316846001600160a01b03167fddf252ad1be2c89b69c2b068fc378daa952ba7f163c4a11628f55a4df523b3ef84604051610c8c91815260200190565b60405180910390a350505050565b6001600160a01b038216610cf05760405162461bcd60e51b815260206004820152601f60248201527f45524332303a206d696e7420746f20746865207a65726f206164647265737300604482015260640161036e565b8060026000828254610d02919061104d565b90915550506001600160a01b03821660009081526020819052604081208054839290610d2f90849061104d565b90915550506040518181526001600160a01b038316906000907fddf252ad1be2c89b69c2b068fc378daa952ba7f163c4a11628f55a4df523b3ef9060200160405180910390a35050565b6001600160a01b038216610dd95760405162461bcd60e51b815260206004820152602160248201527f45524332303a206275726e2066726f6d20746865207a65726f206164647265736044820152607360f81b606482015260840161036e565b6001600160a01b03821660009081526020819052604090205481811015610e4d5760405162461bcd60e51b815260206004820152602260248201527f45524332303a206275726e20616d6f756e7420657863656564732062616c616e604482015261636560f01b606482015260840161036e565b6001600160a01b0383166000908152602081905260408120838303905560028054849290610e7c908490611065565b90915550506040518281526000906001600160a01b038516907fddf252ad1be2c89b69c2b068fc378daa952ba7f163c4a11628f55a4df523b3ef90602001610abe565b600060208284031215610ed0578081fd5b8135610edb816110cd565b9392505050565b600060208284031215610ef3578081fd5b8151610edb816110cd565b60008060408385031215610f10578081fd5b8235610f1b816110cd565b91506020830135610f2b816110cd565b809150509250929050565b600080600060608486031215610f4a578081fd5b8335610f55816110cd565b92506020840135610f65816110cd565b929592945050506040919091013590565b60008060408385031215610f88578182fd5b8235610f93816110cd565b946020939093013593505050565b600060208284031215610fb2578081fd5b81518015158114610edb578182fd5b600060208284031215610fd2578081fd5b5051919050565b60008060408385031215610feb578182fd5b50508035926020909101359150565b6000602080835283518082850152825b818110156110265785810183015185820160400152820161100a565b818111156110375783604083870101525b50601f01601f1916929092016040019392505050565b60008219821115611060576110606110b7565b500190565b600082821015611077576110776110b7565b500390565b60028104600182168061109057607f821691505b602082108114156110b157634e487b7160e01b600052602260045260246000fd5b50919050565b634e487b7160e01b600052601160045260246000fd5b6001600160a01b03811681146110e257600080fd5b5056fea264697066735822122022c4d50c9628e7ef5fcee1fee3d6d1ec56b6e926e06c76d83eac55f5b7ceba7e64736f6c63430008020033",
  "immutableReferences": {},
  "source": "// SPDX-License-Identifier: MIT\n\npragma solidity ^0.8.2;\n\nimport \"./@openzeppelin/contracts/token/ERC20/ERC20.sol\";\n\ninterface IAURA {\n  function ownerOf(uint256) external view returns (address);\n\n  function getApproved(uint256) external view returns (address);\n\n  function AURA(uint256) external view returns (uint256);\n\n  function AURAallowance(uint256, uint256) external view returns (uint256);\n\n  function AURAtransferFrom(\n    uint256,\n    uint256,\n    uint256,\n    uint256\n  ) external returns (bool);\n\n  function AURATransfer(\n    uint256,\n    uint256,\n    uint256\n  ) external returns (bool);\n}\n\ncontract AURAWrapped is ERC20(\"KOI Aura\", \"AURA\") {\n  IAURA KOIContract = IAURA(0x67Bba38865a7C7aDa68D51082DA7fa33c3959d85);\n  //IRarity rarityContract = IRarity(0xce761D788DF608BD21bdd59d6f4B54b2e27F25Bb);\n\n  uint256 public _Treasurer; //\n  event AURAGotWrapped(uint256 indexed _KOI_ID, uint256 amount);\n  event AURAGotUnwrapped(uint256 amount, uint256 indexed to_KOI_ID);\n\n  constructor() {\n    _Treasurer = 17;\n  }\n\n  modifier ownerOrApproved(uint256 _KOI_ID) {\n    require(\n      KOIContract.ownerOf(_KOI_ID) == msg.sender ||\n        KOIContract.getApproved(_KOI_ID) == msg.sender,\n      \"Neither owner nor approved\"\n    );\n    _;\n  }\n\n  modifier hasEnoughAndApproved(uint256 _KOI_ID, uint256 amount) {\n    require(\n      KOIContract.AURA(_KOI_ID) >= amount,\n      \"Summoner doesnt have enough $AURA\"\n    );\n    require(\n      KOIContract.AURAallowance(_KOI_ID, _Treasurer) >= amount,\n      \"Not enough allowance to Treasurer\"\n    );\n    _;\n  }\n  \n  \n  function wrap(uint256 _KOI_ID, uint256 amountToWrap)\n    external\n    ownerOrApproved(_KOI_ID)\n    hasEnoughAndApproved(_KOI_ID, amountToWrap)\n  {\n    KOIContract.AURAtransferFrom(\n        _Treasurer,\n        _KOI_ID,\n        _Treasurer,\n        amountToWrap);\n    _mint(msg.sender, amountToWrap);\n\n    emit AURAGotWrapped(_KOI_ID, amountToWrap);\n  }\n\n  function unwrap(uint256 amountToUnwrap, uint256 to_KOI_ID) external {\n    _burn(msg.sender, amountToUnwrap);\n    require(\n      KOIContract.AURATransfer(_Treasurer, to_KOI_ID, amountToUnwrap),\n      \"Transfer of $AURA failed\"\n    );\n\n    emit AURAGotUnwrapped(amountToUnwrap, to_KOI_ID);\n  }\n}\n",
  "sourcePath": "/Users/punkcan/Ethereum Studio/KOIProject/contracts/AURA.sol",
  "compiler": {
    "name": "solc",
    "version": "0.8.2+commit.661d1103.Emscripten.clang"
  },
  "schemaVersion": "3.4.3",
  "updatedAt": "2021-11-02T07:03:10.835Z",
  "networkType": "ethereum",
  "devdoc": {
    "kind": "dev",
    "methods": {
      "allowance(address,address)": {
        "details": "See {IERC20-allowance}."
      },
      "approve(address,uint256)": {
        "details": "See {IERC20-approve}. Requirements: - `spender` cannot be the zero address."
      },
      "balanceOf(address)": {
        "details": "See {IERC20-balanceOf}."
      },
      "decimals()": {
        "details": "Returns the number of decimals used to get its user representation. For example, if `decimals` equals `2`, a balance of `505` tokens should be displayed to a user as `5.05` (`505 / 10 ** 2`). Tokens usually opt for a value of 18, imitating the relationship between Ether and Wei. This is the value {ERC20} uses, unless this function is overridden; NOTE: This information is only used for _display_ purposes: it in no way affects any of the arithmetic of the contract, including {IERC20-balanceOf} and {IERC20-transfer}."
      },
      "decreaseAllowance(address,uint256)": {
        "details": "Atomically decreases the allowance granted to `spender` by the caller. This is an alternative to {approve} that can be used as a mitigation for problems described in {IERC20-approve}. Emits an {Approval} event indicating the updated allowance. Requirements: - `spender` cannot be the zero address. - `spender` must have allowance for the caller of at least `subtractedValue`."
      },
      "increaseAllowance(address,uint256)": {
        "details": "Atomically increases the allowance granted to `spender` by the caller. This is an alternative to {approve} that can be used as a mitigation for problems described in {IERC20-approve}. Emits an {Approval} event indicating the updated allowance. Requirements: - `spender` cannot be the zero address."
      },
      "name()": {
        "details": "Returns the name of the token."
      },
      "symbol()": {
        "details": "Returns the symbol of the token, usually a shorter version of the name."
      },
      "totalSupply()": {
        "details": "See {IERC20-totalSupply}."
      },
      "transfer(address,uint256)": {
        "details": "See {IERC20-transfer}. Requirements: - `recipient` cannot be the zero address. - the caller must have a balance of at least `amount`."
      },
      "transferFrom(address,address,uint256)": {
        "details": "See {IERC20-transferFrom}. Emits an {Approval} event indicating the updated allowance. This is not required by the EIP. See the note at the beginning of {ERC20}. Requirements: - `sender` and `recipient` cannot be the zero address. - `sender` must have a balance of at least `amount`. - the caller must have allowance for ``sender``'s tokens of at least `amount`."
      }
    },
    "version": 1
  },
  "userdoc": {
    "kind": "user",
    "methods": {},
    "version": 1
  }
}