{
  "contractName": "KOIProject",
  "abi": [
    {
      "inputs": [],
      "stateMutability": "nonpayable",
      "type": "constructor"
    },
    {
      "anonymous": false,
      "inputs": [
        {
          "indexed": true,
          "internalType": "uint256",
          "name": "_KOI_id",
          "type": "uint256"
        },
        {
          "indexed": true,
          "internalType": "uint256",
          "name": "to",
          "type": "uint256"
        },
        {
          "indexed": false,
          "internalType": "uint256",
          "name": "amount",
          "type": "uint256"
        }
      ],
      "name": "AURAApproval",
      "type": "event"
    },
    {
      "anonymous": false,
      "inputs": [
        {
          "indexed": true,
          "internalType": "uint256",
          "name": "_KOI_id",
          "type": "uint256"
        },
        {
          "indexed": true,
          "internalType": "uint256",
          "name": "to",
          "type": "uint256"
        },
        {
          "indexed": false,
          "internalType": "uint256",
          "name": "amount",
          "type": "uint256"
        }
      ],
      "name": "AURATransfer",
      "type": "event"
    },
    {
      "anonymous": false,
      "inputs": [
        {
          "indexed": true,
          "internalType": "address",
          "name": "owner",
          "type": "address"
        },
        {
          "indexed": true,
          "internalType": "address",
          "name": "approved",
          "type": "address"
        },
        {
          "indexed": true,
          "internalType": "uint256",
          "name": "tokenId",
          "type": "uint256"
        }
      ],
      "name": "Approval",
      "type": "event"
    },
    {
      "anonymous": false,
      "inputs": [
        {
          "indexed": true,
          "internalType": "address",
          "name": "owner",
          "type": "address"
        },
        {
          "indexed": true,
          "internalType": "address",
          "name": "operator",
          "type": "address"
        },
        {
          "indexed": false,
          "internalType": "bool",
          "name": "approved",
          "type": "bool"
        }
      ],
      "name": "ApprovalForAll",
      "type": "event"
    },
    {
      "anonymous": false,
      "inputs": [
        {
          "indexed": true,
          "internalType": "address",
          "name": "owner",
          "type": "address"
        },
        {
          "indexed": false,
          "internalType": "uint256",
          "name": "Gender",
          "type": "uint256"
        },
        {
          "indexed": false,
          "internalType": "uint256",
          "name": "KOI_id",
          "type": "uint256"
        }
      ],
      "name": "Minted",
      "type": "event"
    },
    {
      "anonymous": false,
      "inputs": [
        {
          "indexed": true,
          "internalType": "address",
          "name": "previousOwner",
          "type": "address"
        },
        {
          "indexed": true,
          "internalType": "address",
          "name": "newOwner",
          "type": "address"
        }
      ],
      "name": "OwnershipTransferred",
      "type": "event"
    },
    {
      "anonymous": false,
      "inputs": [
        {
          "indexed": true,
          "internalType": "address",
          "name": "from",
          "type": "address"
        },
        {
          "indexed": true,
          "internalType": "address",
          "name": "to",
          "type": "address"
        },
        {
          "indexed": true,
          "internalType": "uint256",
          "name": "tokenId",
          "type": "uint256"
        }
      ],
      "name": "Transfer",
      "type": "event"
    },
    {
      "anonymous": false,
      "inputs": [
        {
          "indexed": true,
          "internalType": "address",
          "name": "owner",
          "type": "address"
        },
        {
          "indexed": false,
          "internalType": "string",
          "name": "_Secrets",
          "type": "string"
        },
        {
          "indexed": false,
          "internalType": "uint256",
          "name": "KOI_id",
          "type": "uint256"
        }
      ],
      "name": "eventSecrets",
      "type": "event"
    },
    {
      "anonymous": false,
      "inputs": [
        {
          "indexed": true,
          "internalType": "address",
          "name": "owner",
          "type": "address"
        },
        {
          "indexed": false,
          "internalType": "uint256",
          "name": "level",
          "type": "uint256"
        },
        {
          "indexed": false,
          "internalType": "uint256",
          "name": "KOI_id",
          "type": "uint256"
        }
      ],
      "name": "leveled",
      "type": "event"
    },
    {
      "inputs": [
        {
          "internalType": "uint256",
          "name": "",
          "type": "uint256"
        }
      ],
      "name": "AURA",
      "outputs": [
        {
          "internalType": "uint256",
          "name": "",
          "type": "uint256"
        }
      ],
      "stateMutability": "view",
      "type": "function",
      "constant": true
    },
    {
      "inputs": [
        {
          "internalType": "uint256",
          "name": "",
          "type": "uint256"
        },
        {
          "internalType": "uint256",
          "name": "",
          "type": "uint256"
        }
      ],
      "name": "AURAallowance",
      "outputs": [
        {
          "internalType": "uint256",
          "name": "",
          "type": "uint256"
        }
      ],
      "stateMutability": "view",
      "type": "function",
      "constant": true
    },
    {
      "inputs": [],
      "name": "AURAcontract",
      "outputs": [
        {
          "internalType": "address",
          "name": "",
          "type": "address"
        }
      ],
      "stateMutability": "view",
      "type": "function",
      "constant": true
    },
    {
      "inputs": [],
      "name": "AURAmaxSupply",
      "outputs": [
        {
          "internalType": "uint256",
          "name": "",
          "type": "uint256"
        }
      ],
      "stateMutability": "view",
      "type": "function",
      "constant": true
    },
    {
      "inputs": [],
      "name": "AURAtotalSupply",
      "outputs": [
        {
          "internalType": "uint256",
          "name": "",
          "type": "uint256"
        }
      ],
      "stateMutability": "view",
      "type": "function",
      "constant": true
    },
    {
      "inputs": [
        {
          "internalType": "uint256",
          "name": "",
          "type": "uint256"
        }
      ],
      "name": "Gender",
      "outputs": [
        {
          "internalType": "uint256",
          "name": "",
          "type": "uint256"
        }
      ],
      "stateMutability": "view",
      "type": "function",
      "constant": true
    },
    {
      "inputs": [
        {
          "internalType": "uint256",
          "name": "",
          "type": "uint256"
        }
      ],
      "name": "Get_rich_log",
      "outputs": [
        {
          "internalType": "uint256",
          "name": "",
          "type": "uint256"
        }
      ],
      "stateMutability": "view",
      "type": "function",
      "constant": true
    },
    {
      "inputs": [],
      "name": "KOI_Provenance",
      "outputs": [
        {
          "internalType": "string",
          "name": "",
          "type": "string"
        }
      ],
      "stateMutability": "view",
      "type": "function",
      "constant": true
    },
    {
      "inputs": [
        {
          "internalType": "uint256",
          "name": "",
          "type": "uint256"
        }
      ],
      "name": "Luckymoney",
      "outputs": [
        {
          "internalType": "uint256",
          "name": "",
          "type": "uint256"
        }
      ],
      "stateMutability": "view",
      "type": "function",
      "constant": true
    },
    {
      "inputs": [],
      "name": "MAX_TOKENS",
      "outputs": [
        {
          "internalType": "uint256",
          "name": "",
          "type": "uint256"
        }
      ],
      "stateMutability": "view",
      "type": "function",
      "constant": true
    },
    {
      "inputs": [],
      "name": "MAX_TOKENS_PER_PURCHASE",
      "outputs": [
        {
          "internalType": "uint256",
          "name": "",
          "type": "uint256"
        }
      ],
      "stateMutability": "view",
      "type": "function",
      "constant": true
    },
    {
      "inputs": [
        {
          "internalType": "uint256",
          "name": "",
          "type": "uint256"
        }
      ],
      "name": "TransferTimes",
      "outputs": [
        {
          "internalType": "uint256",
          "name": "",
          "type": "uint256"
        }
      ],
      "stateMutability": "view",
      "type": "function",
      "constant": true
    },
    {
      "inputs": [
        {
          "internalType": "address",
          "name": "to",
          "type": "address"
        },
        {
          "internalType": "uint256",
          "name": "tokenId",
          "type": "uint256"
        }
      ],
      "name": "approve",
      "outputs": [],
      "stateMutability": "nonpayable",
      "type": "function"
    },
    {
      "inputs": [
        {
          "internalType": "address",
          "name": "owner",
          "type": "address"
        }
      ],
      "name": "balanceOf",
      "outputs": [
        {
          "internalType": "uint256",
          "name": "",
          "type": "uint256"
        }
      ],
      "stateMutability": "view",
      "type": "function",
      "constant": true
    },
    {
      "inputs": [
        {
          "internalType": "uint256",
          "name": "tokenId",
          "type": "uint256"
        }
      ],
      "name": "getApproved",
      "outputs": [
        {
          "internalType": "address",
          "name": "",
          "type": "address"
        }
      ],
      "stateMutability": "view",
      "type": "function",
      "constant": true
    },
    {
      "inputs": [
        {
          "internalType": "address",
          "name": "owner",
          "type": "address"
        },
        {
          "internalType": "address",
          "name": "operator",
          "type": "address"
        }
      ],
      "name": "isApprovedForAll",
      "outputs": [
        {
          "internalType": "bool",
          "name": "",
          "type": "bool"
        }
      ],
      "stateMutability": "view",
      "type": "function",
      "constant": true
    },
    {
      "inputs": [],
      "name": "isSaleActive",
      "outputs": [
        {
          "internalType": "bool",
          "name": "",
          "type": "bool"
        }
      ],
      "stateMutability": "view",
      "type": "function",
      "constant": true
    },
    {
      "inputs": [
        {
          "internalType": "uint256",
          "name": "",
          "type": "uint256"
        }
      ],
      "name": "level",
      "outputs": [
        {
          "internalType": "uint256",
          "name": "",
          "type": "uint256"
        }
      ],
      "stateMutability": "view",
      "type": "function",
      "constant": true
    },
    {
      "inputs": [],
      "name": "name",
      "outputs": [
        {
          "internalType": "string",
          "name": "",
          "type": "string"
        }
      ],
      "stateMutability": "view",
      "type": "function",
      "constant": true
    },
    {
      "inputs": [],
      "name": "owner",
      "outputs": [
        {
          "internalType": "address",
          "name": "",
          "type": "address"
        }
      ],
      "stateMutability": "view",
      "type": "function",
      "constant": true
    },
    {
      "inputs": [
        {
          "internalType": "uint256",
          "name": "tokenId",
          "type": "uint256"
        }
      ],
      "name": "ownerOf",
      "outputs": [
        {
          "internalType": "address",
          "name": "",
          "type": "address"
        }
      ],
      "stateMutability": "view",
      "type": "function",
      "constant": true
    },
    {
      "inputs": [],
      "name": "renounceOwnership",
      "outputs": [],
      "stateMutability": "nonpayable",
      "type": "function"
    },
    {
      "inputs": [
        {
          "internalType": "address",
          "name": "from",
          "type": "address"
        },
        {
          "internalType": "address",
          "name": "to",
          "type": "address"
        },
        {
          "internalType": "uint256",
          "name": "tokenId",
          "type": "uint256"
        }
      ],
      "name": "safeTransferFrom",
      "outputs": [],
      "stateMutability": "nonpayable",
      "type": "function"
    },
    {
      "inputs": [
        {
          "internalType": "address",
          "name": "from",
          "type": "address"
        },
        {
          "internalType": "address",
          "name": "to",
          "type": "address"
        },
        {
          "internalType": "uint256",
          "name": "tokenId",
          "type": "uint256"
        },
        {
          "internalType": "bytes",
          "name": "_data",
          "type": "bytes"
        }
      ],
      "name": "safeTransferFrom",
      "outputs": [],
      "stateMutability": "nonpayable",
      "type": "function"
    },
    {
      "inputs": [
        {
          "internalType": "address",
          "name": "operator",
          "type": "address"
        },
        {
          "internalType": "bool",
          "name": "approved",
          "type": "bool"
        }
      ],
      "name": "setApprovalForAll",
      "outputs": [],
      "stateMutability": "nonpayable",
      "type": "function"
    },
    {
      "inputs": [],
      "name": "symbol",
      "outputs": [
        {
          "internalType": "string",
          "name": "",
          "type": "string"
        }
      ],
      "stateMutability": "view",
      "type": "function",
      "constant": true
    },
    {
      "inputs": [
        {
          "internalType": "uint256",
          "name": "index",
          "type": "uint256"
        }
      ],
      "name": "tokenByIndex",
      "outputs": [
        {
          "internalType": "uint256",
          "name": "",
          "type": "uint256"
        }
      ],
      "stateMutability": "view",
      "type": "function",
      "constant": true
    },
    {
      "inputs": [
        {
          "internalType": "address",
          "name": "owner",
          "type": "address"
        },
        {
          "internalType": "uint256",
          "name": "index",
          "type": "uint256"
        }
      ],
      "name": "tokenOfOwnerByIndex",
      "outputs": [
        {
          "internalType": "uint256",
          "name": "",
          "type": "uint256"
        }
      ],
      "stateMutability": "view",
      "type": "function",
      "constant": true
    },
    {
      "inputs": [
        {
          "internalType": "uint256",
          "name": "tokenId",
          "type": "uint256"
        }
      ],
      "name": "tokenURI",
      "outputs": [
        {
          "internalType": "string",
          "name": "",
          "type": "string"
        }
      ],
      "stateMutability": "view",
      "type": "function",
      "constant": true
    },
    {
      "inputs": [],
      "name": "totalSupply",
      "outputs": [
        {
          "internalType": "uint256",
          "name": "",
          "type": "uint256"
        }
      ],
      "stateMutability": "view",
      "type": "function",
      "constant": true
    },
    {
      "inputs": [
        {
          "internalType": "address",
          "name": "from",
          "type": "address"
        },
        {
          "internalType": "address",
          "name": "to",
          "type": "address"
        },
        {
          "internalType": "uint256",
          "name": "tokenId",
          "type": "uint256"
        }
      ],
      "name": "transferFrom",
      "outputs": [],
      "stateMutability": "nonpayable",
      "type": "function"
    },
    {
      "inputs": [
        {
          "internalType": "address",
          "name": "newOwner",
          "type": "address"
        }
      ],
      "name": "transferOwnership",
      "outputs": [],
      "stateMutability": "nonpayable",
      "type": "function"
    },
    {
      "inputs": [
        {
          "internalType": "address",
          "name": "_AURAcontract",
          "type": "address"
        }
      ],
      "name": "setAURAcontract",
      "outputs": [],
      "stateMutability": "nonpayable",
      "type": "function"
    },
    {
      "inputs": [
        {
          "internalType": "uint256",
          "name": "_KOI_id",
          "type": "uint256"
        }
      ],
      "name": "AURAclaimable",
      "outputs": [
        {
          "internalType": "uint256",
          "name": "amount",
          "type": "uint256"
        }
      ],
      "stateMutability": "view",
      "type": "function",
      "constant": true
    },
    {
      "inputs": [
        {
          "internalType": "uint256",
          "name": "_KOI_id",
          "type": "uint256"
        },
        {
          "internalType": "uint256",
          "name": "_AURAamount",
          "type": "uint256"
        }
      ],
      "name": "AURAclaim",
      "outputs": [],
      "stateMutability": "nonpayable",
      "type": "function"
    },
    {
      "inputs": [
        {
          "internalType": "uint256",
          "name": "_KOI_id",
          "type": "uint256"
        },
        {
          "internalType": "uint256",
          "name": "spender",
          "type": "uint256"
        },
        {
          "internalType": "uint256",
          "name": "amount",
          "type": "uint256"
        }
      ],
      "name": "AURAapprove",
      "outputs": [
        {
          "internalType": "bool",
          "name": "",
          "type": "bool"
        }
      ],
      "stateMutability": "nonpayable",
      "type": "function"
    },
    {
      "inputs": [
        {
          "internalType": "uint256",
          "name": "_KOI_id",
          "type": "uint256"
        },
        {
          "internalType": "uint256",
          "name": "to",
          "type": "uint256"
        },
        {
          "internalType": "uint256",
          "name": "amount",
          "type": "uint256"
        }
      ],
      "name": "AURAtransfer",
      "outputs": [
        {
          "internalType": "bool",
          "name": "",
          "type": "bool"
        }
      ],
      "stateMutability": "nonpayable",
      "type": "function"
    },
    {
      "inputs": [
        {
          "internalType": "uint256",
          "name": "executor",
          "type": "uint256"
        },
        {
          "internalType": "uint256",
          "name": "_KOI_id",
          "type": "uint256"
        },
        {
          "internalType": "uint256",
          "name": "to",
          "type": "uint256"
        },
        {
          "internalType": "uint256",
          "name": "amount",
          "type": "uint256"
        }
      ],
      "name": "AURAtransferFrom",
      "outputs": [
        {
          "internalType": "bool",
          "name": "",
          "type": "bool"
        }
      ],
      "stateMutability": "nonpayable",
      "type": "function"
    },
    {
      "inputs": [
        {
          "internalType": "uint256",
          "name": "_KOI_id",
          "type": "uint256"
        }
      ],
      "name": "Get_rich",
      "outputs": [],
      "stateMutability": "nonpayable",
      "type": "function"
    },
    {
      "inputs": [],
      "name": "Get_rich_All",
      "outputs": [],
      "stateMutability": "nonpayable",
      "type": "function"
    },
    {
      "inputs": [
        {
          "internalType": "uint256",
          "name": "_KOI_id",
          "type": "uint256"
        },
        {
          "internalType": "uint256",
          "name": "_Luckymoney",
          "type": "uint256"
        }
      ],
      "name": "spend_Luckymoney",
      "outputs": [],
      "stateMutability": "nonpayable",
      "type": "function"
    },
    {
      "inputs": [
        {
          "internalType": "uint256",
          "name": "_KOI_id",
          "type": "uint256"
        }
      ],
      "name": "level_up",
      "outputs": [],
      "stateMutability": "nonpayable",
      "type": "function"
    },
    {
      "inputs": [
        {
          "internalType": "uint256",
          "name": "_KOI_id",
          "type": "uint256"
        },
        {
          "internalType": "string",
          "name": "_Secrets",
          "type": "string"
        }
      ],
      "name": "SetSecrets",
      "outputs": [],
      "stateMutability": "nonpayable",
      "type": "function"
    },
    {
      "inputs": [
        {
          "internalType": "uint256",
          "name": "_KOI_id",
          "type": "uint256"
        }
      ],
      "name": "ReadSecrets",
      "outputs": [
        {
          "internalType": "string",
          "name": "_Secrets",
          "type": "string"
        }
      ],
      "stateMutability": "view",
      "type": "function",
      "constant": true
    },
    {
      "inputs": [
        {
          "internalType": "uint256",
          "name": "_KOI_id",
          "type": "uint256"
        }
      ],
      "name": "KOI_Profile",
      "outputs": [
        {
          "internalType": "uint256",
          "name": "_Luckymoney",
          "type": "uint256"
        },
        {
          "internalType": "uint256",
          "name": "_AURA",
          "type": "uint256"
        },
        {
          "internalType": "uint256",
          "name": "_log",
          "type": "uint256"
        },
        {
          "internalType": "uint256",
          "name": "_Gender",
          "type": "uint256"
        },
        {
          "internalType": "uint256",
          "name": "_level",
          "type": "uint256"
        },
        {
          "internalType": "uint256",
          "name": "_TransferTimes",
          "type": "uint256"
        }
      ],
      "stateMutability": "view",
      "type": "function",
      "constant": true
    },
    {
      "inputs": [
        {
          "internalType": "uint256",
          "name": "curent_level",
          "type": "uint256"
        }
      ],
      "name": "Luckymoney_required",
      "outputs": [
        {
          "internalType": "uint256",
          "name": "Luckymoney_to_next_level",
          "type": "uint256"
        }
      ],
      "stateMutability": "pure",
      "type": "function",
      "constant": true
    },
    {
      "inputs": [
        {
          "internalType": "uint256",
          "name": "_KOI_id",
          "type": "uint256"
        },
        {
          "internalType": "uint256",
          "name": "_number",
          "type": "uint256"
        }
      ],
      "name": "dn",
      "outputs": [
        {
          "internalType": "uint256",
          "name": "",
          "type": "uint256"
        }
      ],
      "stateMutability": "view",
      "type": "function",
      "constant": true
    },
    {
      "inputs": [
        {
          "internalType": "string",
          "name": "_provenanceHash",
          "type": "string"
        }
      ],
      "name": "setProvenanceHash",
      "outputs": [],
      "stateMutability": "nonpayable",
      "type": "function"
    },
    {
      "inputs": [
        {
          "internalType": "uint256",
          "name": "_count",
          "type": "uint256"
        }
      ],
      "name": "mint",
      "outputs": [],
      "stateMutability": "payable",
      "type": "function",
      "payable": true
    },
    {
      "inputs": [],
      "name": "baseURI",
      "outputs": [
        {
          "internalType": "string",
          "name": "",
          "type": "string"
        }
      ],
      "stateMutability": "view",
      "type": "function",
      "constant": true
    },
    {
      "inputs": [
        {
          "internalType": "string",
          "name": "_baseURI",
          "type": "string"
        }
      ],
      "name": "setBaseURI",
      "outputs": [],
      "stateMutability": "nonpayable",
      "type": "function"
    },
    {
      "inputs": [],
      "name": "flipSaleStatus",
      "outputs": [],
      "stateMutability": "nonpayable",
      "type": "function"
    },
    {
      "inputs": [
        {
          "internalType": "uint256",
          "name": "_newPrice",
          "type": "uint256"
        }
      ],
      "name": "setPrice",
      "outputs": [],
      "stateMutability": "nonpayable",
      "type": "function"
    },
    {
      "inputs": [],
      "name": "getPrice",
      "outputs": [
        {
          "internalType": "uint256",
          "name": "",
          "type": "uint256"
        }
      ],
      "stateMutability": "view",
      "type": "function",
      "constant": true
    },
    {
      "inputs": [],
      "name": "withdraw",
      "outputs": [],
      "stateMutability": "nonpayable",
      "type": "function"
    },
    {
      "inputs": [
        {
          "internalType": "address",
          "name": "_owner",
          "type": "address"
        }
      ],
      "name": "tokensByOwner",
      "outputs": [
        {
          "internalType": "uint256[]",
          "name": "",
          "type": "uint256[]"
        }
      ],
      "stateMutability": "view",
      "type": "function",
      "constant": true
    },
    {
      "inputs": [
        {
          "internalType": "bytes4",
          "name": "interfaceId",
          "type": "bytes4"
        }
      ],
      "name": "supportsInterface",
      "outputs": [
        {
          "internalType": "bool",
          "name": "",
          "type": "bool"
        }
      ],
      "stateMutability": "view",
      "type": "function",
      "constant": true
    }
  ],
  "bytecode": "0x60a06040819052600060808190526200001b91600d9162000124565b5066b1a2bc2ec50000600f556010805460ff1916600117905560006011553480156200004657600080fd5b50604080518082018252600b81526a12d3d248141c9bda9958dd60aa1b6020808301918252835180850190945260038452624b4f4960e81b908401528151919291620000959160009162000124565b508051620000ab90600190602084019062000124565b505050620000c8620000c2620000ce60201b60201c565b620000d2565b62000207565b3390565b600c80546001600160a01b038381166001600160a01b0319831681179093556040519116919082907f8be0079c531659141344cd1fd0a4f28419497f9722a3daafe3b4186f6b6457e090600090a35050565b8280546200013290620001ca565b90600052602060002090601f016020900481019282620001565760008555620001a1565b82601f106200017157805160ff1916838001178555620001a1565b82800160010185558215620001a1579182015b82811115620001a157825182559160200191906001019062000184565b50620001af929150620001b3565b5090565b5b80821115620001af5760008155600101620001b4565b600281046001821680620001df57607f821691505b602082108114156200020157634e487b7160e01b600052602260045260246000fd5b50919050565b61352880620002176000396000f3fe6080604052600436106103765760003560e01c8063675280eb116101d1578063a22cb46511610102578063e2ac1c46116100a0578063f47c84c51161006f578063f47c84c514610adf578063f48331c514610af5578063f812e56514610b15578063fc7f6cb314610b3557610376565b8063e2ac1c4614610a36578063e747b30514610a56578063e985e9c514610a76578063f2fde38b14610abf57610376565b8063b94c7b55116100dc578063b94c7b55146109bf578063c327c6e2146109d4578063c87b56dd14610a01578063ce03ec9314610a2157610376565b8063a22cb4651461096a578063ab3fb9921461098a578063b88d4fde1461099f57610376565b806388a6e1d61161016f57806391b7f5ed1161014957806391b7f5ed1461090d57806395d89b411461092d57806398d5fdca14610942578063a0712d681461095757610376565b806388a6e1d6146108af5780638da5cb5b146108cf57806390249448146108ed57610376565b806370162735116101ab578063701627351461082d57806370a082311461085a578063715018a61461087a5780638676f5711461088f57610376565b8063675280eb146107c05780636c0360eb146107e05780636ecaa8ce146107f557610376565b80632fe53dd8116102ab5780634f6ccce711610249578063564566a811610223578063564566a8146107465780635872ceae146107605780636352211e1461078057806363947e58146107a057610376565b80634f6ccce7146106d957806355f804b3146106f95780635628ac3f1461071957610376565b80633eceded7116102855780633eceded7146105ed5780633f9fdf3c1461067a57806342842e0e1461069a5780634baa032c146106ba57610376565b80632fe53dd81461058b578063365694eb146105ab5780633ccfd60b146105d857610376565b8063109695231161031857806318160ddd116102f257806318160ddd1461050957806323b872dd1461051e5780632d9bbd701461053e5780632f745c591461056b57610376565b806310969523146104a9578063126e222b146104c95780631510871f146104e957610376565b8063081812fc11610354578063081812fc1461040d578063095ea7b3146104455780630d381a2814610467578063100073801461049457610376565b806301ffc9a71461037b57806305c58df2146103b057806306fdde03146103eb575b600080fd5b34801561038757600080fd5b5061039b610396366004612fc6565b610b4b565b60405190151581526020015b60405180910390f35b3480156103bc57600080fd5b506103dd6103cb366004613031565b60156020526000908152604090205481565b6040519081526020016103a7565b3480156103f757600080fd5b50610400610b5e565b6040516103a79190613203565b34801561041957600080fd5b5061042d610428366004613031565b610bf0565b6040516001600160a01b0390911681526020016103a7565b34801561045157600080fd5b50610465610460366004612f9d565b610c8a565b005b34801561047357600080fd5b50610487610482366004612e63565b610da0565b6040516103a791906131bf565b3480156104a057600080fd5b506103dd601481565b3480156104b557600080fd5b506104656104c4366004612ffe565b610e81565b3480156104d557600080fd5b506104656104e436600461308e565b610ec2565b3480156104f557600080fd5b5061046561050436600461308e565b610efc565b34801561051557600080fd5b50600a546103dd565b34801561052a57600080fd5b50610465610539366004612eaf565b611032565b34801561054a57600080fd5b506103dd610559366004613031565b60176020526000908152604090205481565b34801561057757600080fd5b506103dd610586366004612f9d565b611063565b34801561059757600080fd5b5061039b6105a63660046130da565b6110f9565b3480156105b757600080fd5b506103dd6105c6366004613031565b60196020526000908152604090205481565b3480156105e457600080fd5b506104656111ec565b3480156105f957600080fd5b5061064d610608366004613031565b60009081526012602090815260408083205460178352818420546013845282852054601485528386205460158652848720546019909652939095205491959094939190565b604080519687526020870195909552938501929092526060840152608083015260a082015260c0016103a7565b34801561068657600080fd5b506103dd61069536600461308e565b611245565b3480156106a657600080fd5b506104656106b5366004612eaf565b611262565b3480156106c657600080fd5b506103dd6a18d0bf423c03d8de00000081565b3480156106e557600080fd5b506103dd6106f4366004613031565b61127d565b34801561070557600080fd5b50610465610714366004612ffe565b61131e565b34801561072557600080fd5b506103dd610734366004613031565b60146020526000908152604090205481565b34801561075257600080fd5b5060105461039b9060ff1681565b34801561076c57600080fd5b5061039b61077b3660046130af565b611354565b34801561078c57600080fd5b5061042d61079b366004613031565b6113e0565b3480156107ac57600080fd5b5061039b6107bb3660046130af565b611457565b3480156107cc57600080fd5b506104006107db366004613031565b611481565b3480156107ec57600080fd5b50610400611577565b34801561080157600080fd5b506103dd61081036600461308e565b601860209081526000928352604080842090915290825290205481565b34801561083957600080fd5b506103dd610848366004613031565b60126020526000908152604090205481565b34801561086657600080fd5b506103dd610875366004612e63565b611586565b34801561088657600080fd5b5061046561160d565b34801561089b57600080fd5b50600e5461042d906001600160a01b031681565b3480156108bb57600080fd5b506104656108ca366004613031565b611643565b3480156108db57600080fd5b50600c546001600160a01b031661042d565b3480156108f957600080fd5b50610465610908366004613031565b61170c565b34801561091957600080fd5b50610465610928366004613031565b6117c1565b34801561093957600080fd5b506104006117f0565b34801561094e57600080fd5b50600f546103dd565b610465610965366004613031565b6117ff565b34801561097657600080fd5b50610465610985366004612f63565b611a94565b34801561099657600080fd5b50610400611b66565b3480156109ab57600080fd5b506104656109ba366004612eea565b611bf4565b3480156109cb57600080fd5b50610465611c26565b3480156109e057600080fd5b506103dd6109ef366004613031565b60136020526000908152604090205481565b348015610a0d57600080fd5b50610400610a1c366004613031565b611c83565b348015610a2d57600080fd5b50610465611d5d565b348015610a4257600080fd5b506103dd610a51366004613031565b611d9b565b348015610a6257600080fd5b50610465610a71366004612e63565b611e2d565b348015610a8257600080fd5b5061039b610a91366004612e7d565b6001600160a01b03918216600090815260076020908152604080832093909416825291909152205460ff1690565b348015610acb57600080fd5b50610465610ada366004612e63565b611e79565b348015610aeb57600080fd5b506103dd61753081565b348015610b0157600080fd5b506103dd610b10366004613031565b611f11565b348015610b2157600080fd5b50610465610b30366004613049565b611f64565b348015610b4157600080fd5b506103dd60115481565b6000610b5682612091565b90505b919050565b606060008054610b6d90613436565b80601f0160208091040260200160405190810160405280929190818152602001828054610b9990613436565b8015610be65780601f10610bbb57610100808354040283529160200191610be6565b820191906000526020600020905b815481529060010190602001808311610bc957829003601f168201915b5050505050905090565b6000818152600460205260408120546001600160a01b0316610c6e5760405162461bcd60e51b815260206004820152602c60248201527f4552433732313a20617070726f76656420717565727920666f72206e6f6e657860448201526b34b9ba32b73a103a37b5b2b760a11b60648201526084015b60405180910390fd5b506000908152600660205260409020546001600160a01b031690565b6000610c95826113e0565b9050806001600160a01b0316836001600160a01b03161415610d035760405162461bcd60e51b815260206004820152602160248201527f4552433732313a20617070726f76616c20746f2063757272656e74206f776e656044820152603960f91b6064820152608401610c65565b336001600160a01b0382161480610d1f5750610d1f8133610a91565b610d915760405162461bcd60e51b815260206004820152603860248201527f4552433732313a20617070726f76652063616c6c6572206973206e6f74206f7760448201527f6e6572206e6f7220617070726f76656420666f7220616c6c00000000000000006064820152608401610c65565b610d9b83836120b6565b505050565b60606000610dad83611586565b905080610dca575050604080516000815260208101909152610b59565b60008167ffffffffffffffff811115610df357634e487b7160e01b600052604160045260246000fd5b604051908082528060200260200182016040528015610e1c578160200160208202803683370190505b50905060005b82811015610e7157610e348582611063565b828281518110610e5457634e487b7160e01b600052603260045260246000fd5b602090810291909101015280610e698161346b565b915050610e22565b509150610b599050565b50919050565b600c546001600160a01b03163314610eab5760405162461bcd60e51b8152600401610c65906132d9565b8051610ebe90600d906020840190612d1e565b5050565b610ecc3383612124565b610ed557600080fd5b60008281526012602052604081208054839290610ef39084906133f3565b90915550505050565b6011546a18d0bf423c03d8de0000001015610f295760405162461bcd60e51b8152600401610c659061328a565b601154610f369082612217565b6a18d0bf423c03d8de0000001015610f605760405162461bcd60e51b8152600401610c659061328a565b610f6a3383612124565b610f7357600080fd5b60008281526015602052604090205460018111610fa25760405162461bcd60e51b8152600401610c659061335f565b600083815260126020526040902054610fc383670de0b6b3a7640000612223565b81116110115760405162461bcd60e51b815260206004820152601d60248201527f596f75206c75636b796d6f6e65792062616c616e6365206973206c6f770000006044820152606401610c65565b61102c8461102785670de0b6b3a7640000612223565b61222f565b50505050565b61103c3382612124565b6110585760405162461bcd60e51b8152600401610c659061330e565b610d9b8383836122cc565b600061106e83611586565b82106110d05760405162461bcd60e51b815260206004820152602b60248201527f455243373231456e756d657261626c653a206f776e657220696e646578206f7560448201526a74206f6620626f756e647360a81b6064820152608401610c65565b506001600160a01b03919091166000908152600860209081526040808320938352929052205490565b60006111053385612124565b61113d5760405162461bcd60e51b81526020600482015260096024820152683737ba1027bbb732b960b91b6044820152606401610c65565b6000848152601860209081526040808320888452909152902054859085821480159061116b57506000198114155b156111d257600061117c85836133f3565b60008881526018602090815260408083208784528252918290208390559051828152919250849189917f1a7d5bbbf14087e25bce997ce3ce2c29a34393da090b0eb9ac5e9c4396d987b1910160405180910390a3505b6111dd868686612493565b6001925050505b949350505050565b600c546001600160a01b031633146112165760405162461bcd60e51b8152600401610c65906132d9565b6040514790339082156108fc029083906000818181858888f19350505050158015610ebe573d6000803e3d6000fd5b60008161125184612515565b61125b9190613486565b9392505050565b610d9b83838360405180602001604052806000815250611bf4565b6000611288600a5490565b82106112eb5760405162461bcd60e51b815260206004820152602c60248201527f455243373231456e756d657261626c653a20676c6f62616c20696e646578206f60448201526b7574206f6620626f756e647360a01b6064820152608401610c65565b600a828154811061130c57634e487b7160e01b600052603260045260246000fd5b90600052602060002001549050919050565b600c546001600160a01b031633146113485760405162461bcd60e51b8152600401610c65906132d9565b6113518161256e565b50565b60006113603385612124565b61136957600080fd5b60008481526018602090815260408083208684529091529020829055600e5461139b906001600160a01b0316856120b6565b82847f1a7d5bbbf14087e25bce997ce3ce2c29a34393da090b0eb9ac5e9c4396d987b1846040516113ce91815260200190565b60405180910390a35060019392505050565b6000818152600460205260408120546001600160a01b031680610b565760405162461bcd60e51b815260206004820152602960248201527f4552433732313a206f776e657220717565727920666f72206e6f6e657869737460448201526832b73a103a37b5b2b760b91b6064820152608401610c65565b60006114633385612124565b61146c57600080fd5b611477848484612493565b5060019392505050565b606061148d3383612124565b6114d95760405162461bcd60e51b815260206004820152601c60248201527f4f6e6c79204b4f49206f776e65722063616e20726561642074686973000000006044820152606401610c65565b600082815260166020526040902080546114f290613436565b80601f016020809104026020016040519081016040528092919081815260200182805461151e90613436565b801561156b5780601f106115405761010080835404028352916020019161156b565b820191906000526020600020905b81548152906001019060200180831161154e57829003601f168201915b50505050509050919050565b6060611581612581565b905090565b60006001600160a01b0382166115f15760405162461bcd60e51b815260206004820152602a60248201527f4552433732313a2062616c616e636520717565727920666f7220746865207a65604482015269726f206164647265737360b01b6064820152608401610c65565b506001600160a01b031660009081526005602052604090205490565b600c546001600160a01b031633146116375760405162461bcd60e51b8152600401610c65906132d9565b6116416000612590565b565b61164d3382612124565b61165657600080fd5b600081815260136020526040902054421161167057600080fd5b61167d62015180426133a8565b60008281526013602090815260408083209390935560158152828220546019909152919020546116b590670de0b6b3a7640000612223565b6116d1670de0b6b3a76400006116cb8480612223565b90612223565b6116e49068046419ced7f6a400006133a8565b6116ee91906133a8565b60008381526012602052604081208054909190610ef39084906133a8565b6117163382612124565b61171f57600080fd5b6000818152601560205260408120549061173882611f11565b90508060126000858152602001908152602001600020600082825461175d91906133f3565b9091555061176e90508260016133a8565b60008481526015602090815260409182902092909255805184815291820185905233917f943b00a67689342d89989c0bf7b5f4840b8c5a29e1383dc391a903626b3327c0910160405180910390a2505050565b600c546001600160a01b031633146117eb5760405162461bcd60e51b8152600401610c65906132d9565b600f55565b606060018054610b6d90613436565b600061180a600a5490565b60105490915060ff166118545760405162461bcd60e51b815260206004820152601260248201527153616c65206973206e6f742061637469766560701b6044820152606401610c65565b60008211801561186e575061186b601460016133a8565b82105b6118e05760405162461bcd60e51b815260206004820152603f60248201527f45786365656473206d6178696d756d20746f6b656e7320796f752063616e207060448201527f7572636861736520696e20612073696e676c65207472616e73616374696f6e006064820152608401610c65565b6118ed61753060016133a8565b6118f783836133a8565b1061195a5760405162461bcd60e51b815260206004820152602d60248201527f45786365656473206d6178696d756d20746f6b656e7320617661696c61626c6560448201526c20666f7220707572636861736560981b6064820152608401610c65565b600f546119679083612223565b3410156119c05760405162461bcd60e51b815260206004820152602160248201527f506f6c79676f6e2076616c75652073656e74206973206e6f7420636f727265636044820152601d60fa1b6064820152608401610c65565b6113888111156119ef576119ef61092866b1a2bc2ec500006116cb60036119e9866103e86125e2565b906125ee565b60005b82811015610d9b576000611a0682846133a8565b9050611a13816002611245565b600082815260146020908152604080832084905560158252808320600190556019909152812055611a4433836125fa565b604080518281526020810184905233917f25b428dfde728ccfaddad7e29e4ac23c24ed7fd1a6e3e3f91894a9a073f5dfff910160405180910390a250508080611a8c9061346b565b9150506119f2565b6001600160a01b038216331415611aed5760405162461bcd60e51b815260206004820152601960248201527f4552433732313a20617070726f766520746f2063616c6c6572000000000000006044820152606401610c65565b3360008181526007602090815260408083206001600160a01b0387168085529252909120805460ff1916841515179055906001600160a01b03167f17307eab39ab6107e8899845ad3d59bd9653f200f220920489ca2b5937696c3183604051611b5a911515815260200190565b60405180910390a35050565b600d8054611b7390613436565b80601f0160208091040260200160405190810160405280929190818152602001828054611b9f90613436565b8015611bec5780601f10611bc157610100808354040283529160200191611bec565b820191906000526020600020905b815481529060010190602001808311611bcf57829003601f168201915b505050505081565b611bfe3383612124565b611c1a5760405162461bcd60e51b8152600401610c659061330e565b61102c84848484612614565b6000611c3133611586565b90508015611351576000805b82821015610d9b57611c4f3383611063565b600081815260136020526040902054909150421115611c7157611c7181611643565b81611c7b8161346b565b925050611c3d565b6000818152600460205260409020546060906001600160a01b0316611d025760405162461bcd60e51b815260206004820152602f60248201527f4552433732314d657461646174613a2055524920717565727920666f72206e6f60448201526e3732bc34b9ba32b73a103a37b5b2b760891b6064820152608401610c65565b6000611d0c612581565b90506000815111611d2c576040518060200160405280600081525061125b565b80611d3684612647565b604051602001611d47929190613153565b6040516020818303038152906040529392505050565b600c546001600160a01b03163314611d875760405162461bcd60e51b8152600401610c65906132d9565b6010805460ff19811660ff90911615179055565b60006011546a18d0bf423c03d8de0000001015611dca5760405162461bcd60e51b8152600401610c659061328a565b611dd43383612124565b611ddd57600080fd5b60008281526015602052604090205460018111611e0c5760405162461bcd60e51b8152600401610c659061335f565b60008381526012602052604090205461125b90676124fee993bc00006125e2565b600c546001600160a01b03163314611e575760405162461bcd60e51b8152600401610c65906132d9565b600e80546001600160a01b0319166001600160a01b0392909216919091179055565b600c546001600160a01b03163314611ea35760405162461bcd60e51b8152600401610c65906132d9565b6001600160a01b038116611f085760405162461bcd60e51b815260206004820152602660248201527f4f776e61626c653a206e6577206f776e657220697320746865207a65726f206160448201526564647265737360d01b6064820152608401610c65565b61135181612590565b6000611f2682680de0b6b3a7640000006133d4565b905060015b82811015610e7b57611f4681680de0b6b3a7640000006133d4565b611f5090836133a8565b915080611f5c8161346b565b915050611f2b565b611f6e3383612124565b611f7757600080fd5b6000611f8d670de0b6b3a76400006116cb845190565b600084815260126020526040902054611fa691906133f3565b11611ff35760405162461bcd60e51b815260206004820152601e60248201527f4c75636b796d6f6e6579206973206e6f7420656e6f756768206e6565642000006044820152606401610c65565b612007670de0b6b3a76400006116cb835190565b600083815260126020526040812080549091906120259084906133f3565b90915550506000828152601660209081526040909120825161204992840190612d1e565b50336001600160a01b03167f2930e681b074608f327ebe4634a073ab9079ce8a46963d0e0e4aa6e4c06da38b8284604051612085929190613216565b60405180910390a25050565b60006001600160e01b0319821663780e9d6360e01b1480610b565750610b5682612762565b600081815260066020526040902080546001600160a01b0319166001600160a01b03841690811790915581906120eb826113e0565b6001600160a01b03167f8c5be1e5ebec7d5bd14f71427d1e84f3dd0314c0f7b2291e5b200ac8c7c3b92560405160405180910390a45050565b6000818152600460205260408120546001600160a01b031661219d5760405162461bcd60e51b815260206004820152602c60248201527f4552433732313a206f70657261746f7220717565727920666f72206e6f6e657860448201526b34b9ba32b73a103a37b5b2b760a11b6064820152608401610c65565b60006121a8836113e0565b9050806001600160a01b0316846001600160a01b031614806121e35750836001600160a01b03166121d884610bf0565b6001600160a01b0316145b806111e457506001600160a01b0380821660009081526007602090815260408083209388168352929052205460ff166111e4565b600061125b82846133a8565b600061125b82846133d4565b806011600082825461224191906133a8565b9091555050600082815260176020526040812080548392906122649084906133a8565b909155506122759050816007612223565b600083815260126020526040812080549091906122939084906133f3565b9091555050604051818152829081907f6f2ebbd5abaafc29dd244a977ec522dd79ede417ea3fed83375570f529da7c1490602001611b5a565b826001600160a01b03166122df826113e0565b6001600160a01b0316146123475760405162461bcd60e51b815260206004820152602960248201527f4552433732313a207472616e73666572206f6620746f6b656e2074686174206960448201526839903737ba1037bbb760b91b6064820152608401610c65565b6001600160a01b0382166123a95760405162461bcd60e51b8152602060048201526024808201527f4552433732313a207472616e7366657220746f20746865207a65726f206164646044820152637265737360e01b6064820152608401610c65565b6123b48383836127b2565b6123bf6000826120b6565b6001600160a01b03831660009081526005602052604081208054600192906123e89084906133f3565b90915550506001600160a01b03821660009081526005602052604081208054600192906124169084906133a8565b9091555050600081815260046020526040902080546001600160a01b0319166001600160a01b03841617905561244d8383836127bd565b80826001600160a01b0316846001600160a01b03167fddf252ad1be2c89b69c2b068fc378daa952ba7f163c4a11628f55a4df523b3ef60405160405180910390a4505050565b600083815260176020526040812080548392906124b19084906133f3565b9091555050600082815260176020526040812080548392906124d49084906133a8565b9091555050604051818152829084907f6f2ebbd5abaafc29dd244a977ec522dd79ede417ea3fed83375570f529da7c149060200160405180910390a3505050565b6000610b56426125266001436133f3565b604080516020810193909352904090820152606080820185905233901b6bffffffffffffffffffffffff191660808201526094016040516020818303038152906040526127eb565b8051610ebe906003906020840190612d1e565b606060038054610b6d90613436565b600c80546001600160a01b038381166001600160a01b0319831681179093556040519116919082907f8be0079c531659141344cd1fd0a4f28419497f9722a3daafe3b4186f6b6457e090600090a35050565b600061125b82846133c0565b600061125b82846133f3565b610ebe82826040518060200160405280600081525061281c565b61261f8484846122cc565b61262b8484848461284f565b61102c5760405162461bcd60e51b8152600401610c6590613238565b60608161266c57506040805180820190915260018152600360fc1b6020820152610b59565b8160005b811561269657806126808161346b565b915061268f9050600a836133c0565b9150612670565b60008167ffffffffffffffff8111156126bf57634e487b7160e01b600052604160045260246000fd5b6040519080825280601f01601f1916602001820160405280156126e9576020820181803683370190505b5090505b84156111e4576126fe6001836133f3565b915061270b600a86613486565b6127169060306133a8565b60f81b81838151811061273957634e487b7160e01b600052603260045260246000fd5b60200101906001600160f81b031916908160001a90535061275b600a866133c0565b94506126ed565b60006001600160e01b031982166380ac58cd60e01b148061279357506001600160e01b03198216635b5e139f60e01b145b80610b5657506301ffc9a760e01b6001600160e01b0319831614610b56565b610d9b838383612959565b60008181526019602052604081208054600192906127dc9084906133a8565b90915550610d9b905083838383565b6000816040516020016127fe9190613137565b60408051601f19818403018152919052805160209091012092915050565b6128268383612a16565b612833600084848461284f565b610d9b5760405162461bcd60e51b8152600401610c6590613238565b60006001600160a01b0384163b1561295157604051630a85bd0160e11b81526001600160a01b0385169063150b7a0290612893903390899088908890600401613182565b602060405180830381600087803b1580156128ad57600080fd5b505af19250505080156128dd575060408051601f3d908101601f191682019092526128da91810190612fe2565b60015b612937573d80801561290b576040519150601f19603f3d011682016040523d82523d6000602084013e612910565b606091505b50805161292f5760405162461bcd60e51b8152600401610c6590613238565b805181602001fd5b6001600160e01b031916630a85bd0160e11b1490506111e4565b5060016111e4565b6001600160a01b0383166129b4576129af81600a80546000838152600b60205260408120829055600182018355919091527fc65a7bb8d6351c1cf70c95a316cc6a92839c986682d98bc35f958f4883f9d2a80155565b6129d7565b816001600160a01b0316836001600160a01b0316146129d7576129d78382612b64565b6001600160a01b0382166129f3576129ee81612c01565b610d9b565b826001600160a01b0316826001600160a01b031614610d9b57610d9b8282612cda565b6001600160a01b038216612a6c5760405162461bcd60e51b815260206004820181905260248201527f4552433732313a206d696e7420746f20746865207a65726f20616464726573736044820152606401610c65565b6000818152600460205260409020546001600160a01b031615612ad15760405162461bcd60e51b815260206004820152601c60248201527f4552433732313a20746f6b656e20616c7265616479206d696e746564000000006044820152606401610c65565b612add600083836127b2565b6001600160a01b0382166000908152600560205260408120805460019290612b069084906133a8565b909155505060008181526004602052604080822080546001600160a01b0319166001600160a01b03861690811790915590518392907fddf252ad1be2c89b69c2b068fc378daa952ba7f163c4a11628f55a4df523b3ef908290a45050565b60006001612b7184611586565b612b7b91906133f3565b600083815260096020526040902054909150808214612bce576001600160a01b03841660009081526008602090815260408083208584528252808320548484528184208190558352600990915290208190555b5060009182526009602090815260408084208490556001600160a01b039094168352600881528383209183525290812055565b600a54600090612c13906001906133f3565b6000838152600b6020526040812054600a8054939450909284908110612c4957634e487b7160e01b600052603260045260246000fd5b9060005260206000200154905080600a8381548110612c7857634e487b7160e01b600052603260045260246000fd5b6000918252602080832090910192909255828152600b9091526040808220849055858252812055600a805480612cbe57634e487b7160e01b600052603160045260246000fd5b6001900381819060005260206000200160009055905550505050565b6000612ce583611586565b6001600160a01b039093166000908152600860209081526040808320868452825280832085905593825260099052919091209190915550565b828054612d2a90613436565b90600052602060002090601f016020900481019282612d4c5760008555612d92565b82601f10612d6557805160ff1916838001178555612d92565b82800160010185558215612d92579182015b82811115612d92578251825591602001919060010190612d77565b50612d9e929150612da2565b5090565b5b80821115612d9e5760008155600101612da3565b600067ffffffffffffffff80841115612dd257612dd26134c6565b604051601f8501601f19908116603f01168101908282118183101715612dfa57612dfa6134c6565b81604052809350858152868686011115612e1357600080fd5b858560208301376000602087830101525050509392505050565b80356001600160a01b0381168114610b5957600080fd5b600082601f830112612e54578081fd5b61125b83833560208501612db7565b600060208284031215612e74578081fd5b61125b82612e2d565b60008060408385031215612e8f578081fd5b612e9883612e2d565b9150612ea660208401612e2d565b90509250929050565b600080600060608486031215612ec3578081fd5b612ecc84612e2d565b9250612eda60208501612e2d565b9150604084013590509250925092565b60008060008060808587031215612eff578081fd5b612f0885612e2d565b9350612f1660208601612e2d565b925060408501359150606085013567ffffffffffffffff811115612f38578182fd5b8501601f81018713612f48578182fd5b612f5787823560208401612db7565b91505092959194509250565b60008060408385031215612f75578182fd5b612f7e83612e2d565b915060208301358015158114612f92578182fd5b809150509250929050565b60008060408385031215612faf578182fd5b612fb883612e2d565b946020939093013593505050565b600060208284031215612fd7578081fd5b813561125b816134dc565b600060208284031215612ff3578081fd5b815161125b816134dc565b60006020828403121561300f578081fd5b813567ffffffffffffffff811115613025578182fd5b6111e484828501612e44565b600060208284031215613042578081fd5b5035919050565b6000806040838503121561305b578182fd5b82359150602083013567ffffffffffffffff811115613078578182fd5b61308485828601612e44565b9150509250929050565b600080604083850312156130a0578182fd5b50508035926020909101359150565b6000806000606084860312156130c3578283fd5b505081359360208301359350604090920135919050565b600080600080608085870312156130ef578182fd5b5050823594602084013594506040840135936060013592509050565b6000815180845261312381602086016020860161340a565b601f01601f19169290920160200192915050565b6000825161314981846020870161340a565b9190910192915050565b6000835161316581846020880161340a565b83519083019061317981836020880161340a565b01949350505050565b6001600160a01b03858116825284166020820152604081018390526080606082018190526000906131b59083018461310b565b9695505050505050565b6020808252825182820181905260009190848201906040850190845b818110156131f7578351835292840192918401916001016131db565b50909695505050505050565b60006020825261125b602083018461310b565b600060408252613229604083018561310b565b90508260208301529392505050565b60208082526032908201527f4552433732313a207472616e7366657220746f206e6f6e20455243373231526560408201527131b2b4bb32b91034b6b83632b6b2b73a32b960711b606082015260800190565b6020808252602f908201527f54686572652077696c6c206265206f6e6c79203330206d696c6c696f6e20415560408201526e524120696e206578697374656e636560881b606082015260800190565b6020808252818101527f4f776e61626c653a2063616c6c6572206973206e6f7420746865206f776e6572604082015260600190565b60208082526031908201527f4552433732313a207472616e736665722063616c6c6572206973206e6f74206f6040820152701ddb995c881b9bdc88185c1c1c9bdd9959607a1b606082015260800190565b60208082526029908201527f5265717569726573204c6576656c2032206f722061626f76652063616e20636c60408201526861696d20415552412160b81b606082015260800190565b600082198211156133bb576133bb61349a565b500190565b6000826133cf576133cf6134b0565b500490565b60008160001904831182151516156133ee576133ee61349a565b500290565b6000828210156134055761340561349a565b500390565b60005b8381101561342557818101518382015260200161340d565b8381111561102c5750506000910152565b60028104600182168061344a57607f821691505b60208210811415610e7b57634e487b7160e01b600052602260045260246000fd5b600060001982141561347f5761347f61349a565b5060010190565b600082613495576134956134b0565b500690565b634e487b7160e01b600052601160045260246000fd5b634e487b7160e01b600052601260045260246000fd5b634e487b7160e01b600052604160045260246000fd5b6001600160e01b03198116811461135157600080fdfea26469706673582212202669d7b3fb0ef1905784b3339a6dde068670ecffbeea88944dcc33930aaf1ea664736f6c63430008020033",
  "immutableReferences": {},
  "source": "// SPDX-License-Identifier: MIT\npragma solidity ^0.8.2;\n\nimport \"./@openzeppelin/contracts/token/ERC721/ERC721.sol\";\nimport \"./@openzeppelin/contracts/token/ERC721/extensions/ERC721Enumerable.sol\";\nimport \"./@openzeppelin/contracts/access/Ownable.sol\";\nimport \"./ERC721Tradable.sol\";\n\n/// @custom:security-contact koi.plur@gmail.com\ncontract KOIProject is ERC721, ERC721Enumerable, Ownable {\n  using SafeMath for uint256;\n\n  string public KOI_Provenance = \"\";\n\n  uint256 public constant MAX_TOKENS = 30000;\n\n  uint256 public constant MAX_TOKENS_PER_PURCHASE = 20;\n  address public AURAcontract;\n\n  uint256 private price = 50000000000000000; // start 0.05\n\n  bool public isSaleActive = true;\n\n  uint256 public constant AURAmaxSupply = 30000000e18;\n\n  uint256 public AURAtotalSupply = 0;\n\n  mapping(uint256 => uint256) public Luckymoney;\n  mapping(uint256 => uint256) public Get_rich_log;\n  mapping(uint256 => uint256) public Gender;\n  mapping(uint256 => uint256) public level;\n  mapping(uint256 => string) private Secrets;\n  mapping(uint256 => uint256) public AURA;\n  mapping(uint256 => mapping(uint256 => uint256)) public AURAallowance;\n  mapping(uint256 => uint256) public TransferTimes;\n\n  uint256 constant Luckymoney_per_day = 81e18; // add 81 Luckymoney\n  uint256 constant DAY = 1 days;\n\n  event Minted(address indexed owner, uint256 Gender, uint256 KOI_id);\n  event leveled(address indexed owner, uint256 level, uint256 KOI_id);\n  event eventSecrets(address indexed owner, string _Secrets, uint256 KOI_id);\n  event AURATransfer(\n    uint256 indexed _KOI_id,\n    uint256 indexed to,\n    uint256 amount\n  );\n  event AURAApproval(\n    uint256 indexed _KOI_id,\n    uint256 indexed to,\n    uint256 amount\n  );\n\n  constructor() ERC721(\"KOI Project\", \"KOI\") {}\n\n  function setAURAcontract(address _AURAcontract) public onlyOwner {\n    AURAcontract = _AURAcontract;\n  }\n\n  function utfStringLength(string memory str)\n    private\n    pure\n    returns (uint256 length)\n  {\n    bytes memory bs = bytes(str);\n    return bs.length;\n  }\n\n  //checked\n  function AURAclaimable(uint256 _KOI_id)\n    external\n    view\n    returns (uint256 amount)\n  {\n    require(\n      AURAmaxSupply >= AURAtotalSupply,\n      \"There will be only 30 million AURA in existence\"\n    );\n    require(_isApprovedOrOwner(msg.sender, _KOI_id));\n    uint256 _current_level = level[_KOI_id];\n    require(_current_level > 1, \"Requires Level 2 or above can claim AURA!\");\n    amount = Luckymoney[_KOI_id].div(7e18);\n  }\n\n  //checked\n  function AURAclaim(uint256 _KOI_id, uint256 _AURAamount) external {\n    require(\n      AURAmaxSupply >= AURAtotalSupply,\n      \"There will be only 30 million AURA in existence\"\n    );\n    require(\n      AURAmaxSupply >= AURAtotalSupply.add(_AURAamount),\n      \"There will be only 30 million AURA in existence\"\n    );\n    require(_isApprovedOrOwner(msg.sender, _KOI_id));\n    uint256 _current_level = level[_KOI_id];\n    require(_current_level > 1, \"Requires Level 2 or above can claim AURA!\");\n    uint256 _current_Luckymoney = Luckymoney[_KOI_id];\n    require(\n      _current_Luckymoney > _AURAamount.mul(1e18),\n      \"You luckymoney balance is low\"\n    );\n    _AURAmint(_KOI_id, _AURAamount.mul(1e18));\n  }\n\n  //checked\n  function _AURAmint(uint256 _KOI_id, uint256 amount) internal {\n    AURAtotalSupply += amount;\n    AURA[_KOI_id] += amount;\n    Luckymoney[_KOI_id] -= amount.mul(7);\n    emit AURATransfer(_KOI_id, _KOI_id, amount);\n  }\n\n  //checked\n  function AURAapprove(\n    uint256 _KOI_id,\n    uint256 spender,\n    uint256 amount\n  ) external returns (bool) {\n    require(_isApprovedOrOwner(msg.sender, _KOI_id));\n    AURAallowance[_KOI_id][spender] = amount;\n    _approve(AURAcontract, _KOI_id);\n\n    emit AURAApproval(_KOI_id, spender, amount);\n    return true;\n  }\n\n  //checked\n  function AURAtransfer(\n    uint256 _KOI_id,\n    uint256 to,\n    uint256 amount\n  ) external returns (bool) {\n    require(_isApprovedOrOwner(msg.sender, _KOI_id));\n    _AURAtransferTokens(_KOI_id, to, amount);\n    return true;\n  }\n\n  //checked\n  function AURAtransferFrom(\n    uint256 executor,\n    uint256 _KOI_id,\n    uint256 to,\n    uint256 amount\n  ) external returns (bool) {\n    require(_isApprovedOrOwner(msg.sender, _KOI_id), \"not Owner\");\n    uint256 spender = executor;\n    uint256 spenderAllowance = AURAallowance[_KOI_id][spender];\n\n    if (spender != _KOI_id && spenderAllowance != type(uint256).max) {\n      uint256 newAllowance = spenderAllowance - amount;\n      AURAallowance[_KOI_id][spender] = newAllowance;\n\n      emit AURAApproval(_KOI_id, spender, newAllowance);\n    }\n\n    _AURAtransferTokens(_KOI_id, to, amount);\n    return true;\n  }\n\n  //checked\n  function _AURAtransferTokens(\n    uint256 _KOI_id,\n    uint256 to,\n    uint256 amount\n  ) internal {\n    AURA[_KOI_id] -= amount;\n    AURA[to] += amount;\n    emit AURATransfer(_KOI_id, to, amount);\n  }\n\n  //checked\n  function Get_rich(uint256 _KOI_id) public {\n    require(_isApprovedOrOwner(msg.sender, _KOI_id));\n    require(block.timestamp > Get_rich_log[_KOI_id]);\n    Get_rich_log[_KOI_id] = block.timestamp + DAY;\n    uint256 _current_level = level[_KOI_id];\n\n    Luckymoney[_KOI_id] += (Luckymoney_per_day +\n      (_current_level.mul(_current_level).mul(1e18)) +\n      (TransferTimes[_KOI_id].mul(1e18)));\n  }\n\n  function Get_rich_All() external {\n    uint256 tokenCount = balanceOf(msg.sender);\n    if (tokenCount > 0) {\n      uint256 index;\n      uint256 _KOI_id;\n      for (index = 0; index < tokenCount; index++) {\n        _KOI_id = tokenOfOwnerByIndex(msg.sender, index);\n        if (block.timestamp > Get_rich_log[_KOI_id]) {\n          Get_rich(_KOI_id);\n        }\n      }\n    }\n\n  }\n\n  //checked\n  function spend_Luckymoney(uint256 _KOI_id, uint256 _Luckymoney) external {\n    require(_isApprovedOrOwner(msg.sender, _KOI_id));\n    Luckymoney[_KOI_id] -= _Luckymoney;\n  }\n\n  function level_up(uint256 _KOI_id) external {\n    require(_isApprovedOrOwner(msg.sender, _KOI_id));\n    uint256 _level = level[_KOI_id];\n    uint256 _Luckymoney_required = Luckymoney_required(_level);\n    Luckymoney[_KOI_id] -= _Luckymoney_required;\n    level[_KOI_id] = _level + 1;\n    emit leveled(msg.sender, _level, _KOI_id);\n  }\n\n  //checked\n  function SetSecrets(uint256 _KOI_id, string memory _Secrets) external {\n    require(_isApprovedOrOwner(msg.sender, _KOI_id));\n    require(\n      Luckymoney[_KOI_id] - utfStringLength(_Secrets).mul(1e18) > 0,\n      \"Luckymoney is not enough need \"\n    );\n    Luckymoney[_KOI_id] -= utfStringLength(_Secrets).mul(1e18);\n    Secrets[_KOI_id] = _Secrets;\n    emit eventSecrets(msg.sender, _Secrets, _KOI_id);\n  }\n\n  //checked\n  function ReadSecrets(uint256 _KOI_id)\n    external\n    view\n    returns (string memory _Secrets)\n  {\n    require(\n      _isApprovedOrOwner(msg.sender, _KOI_id),\n      \"Only KOI owner can read this\"\n    );\n    _Secrets = Secrets[_KOI_id];\n  }\n\n  //checked\n  function KOI_Profile(uint256 _KOI_id)\n    external\n    view\n    returns (\n      uint256 _Luckymoney,\n      uint256 _AURA,\n      uint256 _log,\n      uint256 _Gender,\n      uint256 _level,\n      uint256 _TransferTimes\n    )\n  {\n    _Luckymoney = Luckymoney[_KOI_id];\n    _AURA = AURA[_KOI_id];\n    _log = Get_rich_log[_KOI_id];\n    _Gender = Gender[_KOI_id];\n    _level = level[_KOI_id];\n    _TransferTimes = TransferTimes[_KOI_id];\n  }\n\n  //checked\n  function Luckymoney_required(uint256 curent_level)\n    public\n    pure\n    returns (uint256 Luckymoney_to_next_level)\n  {\n    Luckymoney_to_next_level = curent_level * 256e18;\n    for (uint256 i = 1; i < curent_level; i++) {\n      Luckymoney_to_next_level += i * 256e18;\n    }\n  }\n\n  //checked\n  function dn(uint256 _KOI_id, uint256 _number) public view returns (uint256) {\n    return _seed(_KOI_id) % _number;\n  }\n\n  //checked\n  function _random(string memory input) internal pure returns (uint256) {\n    return uint256(keccak256(abi.encodePacked(input)));\n  }\n\n  //checked\n  function _seed(uint256 _KOI_id) internal view returns (uint256 rand) {\n    rand = _random(\n      string(\n        abi.encodePacked(\n          block.timestamp,\n          blockhash(block.number - 1),\n          _KOI_id,\n          msg.sender\n        )\n      )\n    );\n  }\n\n  //Set PROVENANCE , only owner\n  //checked\n  function setProvenanceHash(string memory _provenanceHash) public onlyOwner {\n    KOI_Provenance = _provenanceHash;\n  }\n\n  //checked\n  // function reserveTokens(address _to, uint256 _reserveAmount) public onlyOwner {\n  //   uint256 supply = totalSupply();\n  //   for (uint256 i = 0; i < _reserveAmount; i++) {\n  //     uint256 _KOI_id = supply + i;\n  //     Gender[_KOI_id] = dn(_KOI_id, 2);\n  //     level[_KOI_id] = 1;\n  //     TransferTimes[_KOI_id] = 0;\n  //     _safeMint(_to, _KOI_id);\n  //   }\n  // }\n\n  //checked\n  function mint(uint256 _count) public payable {\n    uint256 totalSupply = totalSupply();\n\n    require(isSaleActive, \"Sale is not active\");\n    require(\n      _count > 0 && _count < MAX_TOKENS_PER_PURCHASE + 1,\n      \"Exceeds maximum tokens you can purchase in a single transaction\"\n    );\n    require(\n      totalSupply + _count < MAX_TOKENS + 1,\n      \"Exceeds maximum tokens available for purchase\"\n    );\n    require(\n      msg.value >= price.mul(_count),\n      \"Polygon value sent is not correct\"\n    );\n\n    if (totalSupply > 5000) {\n      setPrice(totalSupply.div(1000).sub(3).mul(50000000000000000));\n    }\n\n    for (uint256 i = 0; i < _count; i++) {\n      uint256 _KOI_id = totalSupply + i;\n      Gender[_KOI_id] = dn(_KOI_id, 2);\n      uint256 _Gender = Gender[_KOI_id];\n      level[_KOI_id] = 1;\n      TransferTimes[_KOI_id] = 0;\n      _safeMint(msg.sender, _KOI_id);\n      emit Minted(msg.sender, _Gender, _KOI_id);\n    }\n  }\n\n  //checked\n  function baseURI() public view virtual returns (string memory) {\n    return _baseURI();\n  }\n\n  //checked\n  function setBaseURI(string memory _baseURI) public onlyOwner {\n    _setBaseURI(_baseURI);\n  }\n\n  //checked\n  function flipSaleStatus() public onlyOwner {\n    isSaleActive = !isSaleActive;\n  }\n\n  //checked\n  function setPrice(uint256 _newPrice) public onlyOwner() {\n    price = _newPrice;\n  }\n\n  //checked\n  function getPrice() public view returns (uint256) {\n    return price;\n  }\n\n  //checked\n  function withdraw() public onlyOwner {\n    uint256 balance = address(this).balance;\n    payable(msg.sender).transfer(balance);\n  }\n\n  function tokensByOwner(address _owner)\n    external\n    view\n    returns (uint256[] memory)\n  {\n    uint256 tokenCount = balanceOf(_owner);\n    if (tokenCount == 0) {\n      return new uint256[](0);\n    } else {\n      uint256[] memory result = new uint256[](tokenCount);\n      uint256 index;\n      for (index = 0; index < tokenCount; index++) {\n        result[index] = tokenOfOwnerByIndex(_owner, index);\n      }\n      return result;\n    }\n  }\n\n  function _beforeTokenTransfer(\n    address from,\n    address to,\n    uint256 tokenId\n  ) internal override(ERC721, ERC721Enumerable) {\n    super._beforeTokenTransfer(from, to, tokenId);\n  }\n\n  function _afterTokenTransfer(\n    address from,\n    address to,\n    uint256 tokenId\n  ) internal override(ERC721) {\n    TransferTimes[tokenId] += 1;\n    super._afterTokenTransfer(from, to, tokenId);\n  }\n\n  function supportsInterface(bytes4 interfaceId)\n    public\n    view\n    override(ERC721, ERC721Enumerable)\n    returns (bool)\n  {\n    return super.supportsInterface(interfaceId);\n  }\n}\n",
  "sourcePath": "/Users/punkcan/Ethereum Studio/KOIProject/contracts/KOIProject.sol",
  "compiler": {
    "name": "solc",
    "version": "0.8.2+commit.661d1103.Emscripten.clang"
  },
  "schemaVersion": "3.4.3",
  "updatedAt": "2021-11-02T07:03:10.803Z",
  "networkType": "ethereum",
  "devdoc": {
    "custom:security-contact": "koi.plur@gmail.com",
    "kind": "dev",
    "methods": {
      "approve(address,uint256)": {
        "details": "See {IERC721-approve}."
      },
      "balanceOf(address)": {
        "details": "See {IERC721-balanceOf}."
      },
      "getApproved(uint256)": {
        "details": "See {IERC721-getApproved}."
      },
      "isApprovedForAll(address,address)": {
        "details": "See {IERC721-isApprovedForAll}."
      },
      "name()": {
        "details": "See {IERC721Metadata-name}."
      },
      "owner()": {
        "details": "Returns the address of the current owner."
      },
      "ownerOf(uint256)": {
        "details": "See {IERC721-ownerOf}."
      },
      "renounceOwnership()": {
        "details": "Leaves the contract without owner. It will not be possible to call `onlyOwner` functions anymore. Can only be called by the current owner. NOTE: Renouncing ownership will leave the contract without an owner, thereby removing any functionality that is only available to the owner."
      },
      "safeTransferFrom(address,address,uint256)": {
        "details": "See {IERC721-safeTransferFrom}."
      },
      "safeTransferFrom(address,address,uint256,bytes)": {
        "details": "See {IERC721-safeTransferFrom}."
      },
      "setApprovalForAll(address,bool)": {
        "details": "See {IERC721-setApprovalForAll}."
      },
      "symbol()": {
        "details": "See {IERC721Metadata-symbol}."
      },
      "tokenByIndex(uint256)": {
        "details": "See {IERC721Enumerable-tokenByIndex}."
      },
      "tokenOfOwnerByIndex(address,uint256)": {
        "details": "See {IERC721Enumerable-tokenOfOwnerByIndex}."
      },
      "tokenURI(uint256)": {
        "details": "See {IERC721Metadata-tokenURI}."
      },
      "totalSupply()": {
        "details": "See {IERC721Enumerable-totalSupply}."
      },
      "transferFrom(address,address,uint256)": {
        "details": "See {IERC721-transferFrom}."
      },
      "transferOwnership(address)": {
        "details": "Transfers ownership of the contract to a new account (`newOwner`). Can only be called by the current owner."
      }
    },
    "version": 1
  },
  "userdoc": {
    "kind": "user",
    "methods": {},
    "version": 1
  }
}